:020000040800F2
:100000000028002055060008F9050008FF05000833
:10001000050600080B060008110600080000000095
:1000200000000000000000000000000017060008AB
:1000300023060008000000002F0600083B06000809
:100040009D0600089D0600089D0600089D06000804
:100050009D0600089D0600089D0600089D060008F4
:100060009D0600089D0600089D0600089D060008E4
:100070009D0600089D0600089D0600089D060008D4
:100080009D0600089D0600089D0600089D060008C4
:100090009D0600089D0600089D0600089D060008B4
:1000A0009D0600089D0600089D0600089D060008A4
:1000B0009D0600089D060008000000009D0600083F
:1000C0009D06000800000000000000009D060008DA
:1000D000000000009D0600089D06000800000000CA
:1000E0009D0600089D0600089D060008000000000F
:1000F0000000000000000000000000000000000000
:0C01000000000000000000005FF808F1A3
:10010C0010B5054C237833B9044B13B10448AFF345
:10011C0000800123237010BD0C00002000000000A3
:10012C004420000808B5034B1BB103490348AFF347
:10013C00008008BD000000001000002044200008D2
:10014C0080B584B000AF03460A46FB711346BB7101
:10015C00BB791A464FF48071384801F0ADF9FB7940
:10016C0003F00103FB73FB7B1A460121334801F0BA
:10017C00A3F9FB795B08DBB203F00103FB73FB7B98
:10018C001A4602212D4801F097F9FB799B08DBB246
:10019C0003F00103FB73FB7B1A460421274801F093
:1001AC008BF9FB79DB08DBB203F00103FB73FB7B00
:1001BC001A460821214801F07FF9FB791B09DBB2B3
:1001CC0003F00103FB73FB7B1A4610211B4801F063
:1001DC0073F9FB795B09DBB203F00103FB73FB7B67
:1001EC001A462021154801F067F9FB799B09DBB20F
:1001FC0003F00103FB73FB7B1A4640210F4801F00F
:10020C005BF9FB79DB09FB73FB7B1A4680210B48FE
:10021C0001F052F901224FF40071084801F04CF939
:10022C00052000F099FA00224FF40071034801F008
:10023C0043F900BF1037BD4680BD00BF0008014028
:10024C0080B500AF00213820FFF77AFF00210C2089
:10025C00FFF776FF00210620FFF772FF0021012037
:10026C00FFF76EFF00218020FFF76AFF00BF80BD03
:10027C0090B58BB000AF00F00DFA00F071F800F003
:10028C00FDF800F0BDF8FFF7DBFF314800F060FB34
:10029C004FF0FF312E4800F009FC2D4800F00CFD0A
:1002AC000346FB83FA8B13469B0013445B00294ADD
:1002BC0082FB03121A44D212DB17D31ABB61BB693F
:1002CC00052B20D8244A07F1100392E8030083E899
:1002DC00030000237B620EE007F110027B6A1344DB
:1002EC001B7801211846FFF72BFF322000F034FA5F
:1002FC007B6A01337B6207F110027B6A13441B7823
:10030C00002BE9D11BE0154B3C460FCB07C42370E7
:10031C0000233B620DE03A463B6A13441B780121F3
:10032C001846FFF70DFF322000F016FA3B6A013336
:10033C003B623A463B6A13441B78002BEBD10021FD
:10034C000120FFF7FDFE4FF47A7000F005FA9CE7F0
:10035C0028000020810008805C2000086420000830
:10036C0080B594B000AF07F128032822002118466D
:10037C0001F05AFE07F1140300221A605A609A60C9
:10038C00DA601A613B1D00221A605A609A60DA60CA
:10039C000223BB620123BB631023FB6300237B643A
:1003AC0007F12803184601F09FF80346002B01D0F3
:1003BC0000F0B8F80F237B610023BB610023FB61C5
:1003CC0000233B6200237B6207F1140300211846D3
:1003DC0001F00CFB0346002B01D000F0A3F8022324
:1003EC007B600023FB603B1D184601F083FC034639
:1003FC00002B01D000F096F800BF5037BD4680BDF1
:10040C0080B584B000AF3B1D00221A605A609A6020
:10041C00184B194A1A60174B00229A60154B01228F
:10042C001A73144B00221A75124B4FF46022DA61C6
:10043C00104B00225A600F4B01221A610D4800F03C
:10044C00AFF90346002B01D000F06CF808237B6059
:10045C000123BB600023FB603B1D1946054800F0DF
:10046C0037FC0346002B01D000F05CF800BF1037BE
:10047C00BD4680BD280000200024014080B586B018
:10048C0000AF07F1080300221A605A609A60DA6024
:10049C00214B9B69204A43F0040393611E4B9B69DB
:1004AC0003F004037B607B681B4B9B691A4A43F087
:1004BC0008039361184B9B6903F008033B603B688E
:1004CC00002240F2FF31154800F0F6FF0022022115
:1004DC00134800F0F1FF40F2FF33BB600123FB60D7
:1004EC0000233B6102237B6107F1080319460B488B
:1004FC0000F066FE0223BB600123FB6000233B611E
:10050C0002237B6107F108031946054800F058FEE9
:10051C0000BF1837BD4680BD0010024000080140E6
:10052C00000C014080B400AF00BFBD4680BC7047DA
:10053C0080B483B000AF0E4B9B690D4A43F00103AE
:10054C0093610B4B9B6903F001037B607B68084B49
:10055C00DB69074A43F08053D361054BDB6903F039
:10056C0080533B603B6800BF0C37BD4680BC704776
:10057C000010024080B588B000AF786007F110031E
:10058C0000221A605A609A60DA607B681B68144A11
:10059C00934221D1134B9B69124A43F4007393612C
:1005AC00104B9B6903F40073FB60FB680D4B9B695C
:1005BC000C4A43F0080393610A4B9B6903F0080350
:1005CC00BB60BB6801233B6103237B6107F1100314
:1005DC001946054800F0F4FD00BF2037BD4680BD2C
:1005EC000024014000100240000C014080B400AF18
:1005FC00FEE780B400AFFEE780B400AFFEE780B446
:10060C0000AFFEE780B400AFFEE780B400AF00BFE0
:10061C00BD4680BC704780B400AF00BFBD4680BCF7
:10062C00704780B400AF00BFBD4680BC704780B53A
:10063C0000AF00F075F800BF80BD80B400AF00BF04
:10064C00BD4680BC704700000C480D490D4A002384
:10065C0002E0D458C4500433C4188C42F9D30A4A6B
:10066C000A4C002301E013600432A242FBD3FFF7D3
:10067C00E4FF01F0B5FCFFF7FBFD70470000002024
:10068C000C000020B42000080C0000205C000020AE
:10069C00FEE7000080B500AF084B1B68074A43F02B
:1006AC0010031360032000F057FD0F2000F008F832
:1006BC00FFF73EFF0023184680BD00BF002002401C
:1006CC0080B582B000AF7860124B1A68124B1B7861
:1006DC0019464FF47A73B3FBF1F3B2FBF3F31846FC
:1006EC0000F061FD0346002B01D001230EE07B6876
:1006FC000F2B0AD8002279684FF0FF3000F037FD3D
:10070C00064A7B681360002300E001231846083773
:10071C00BD4680BD00000020080000200400002021
:10072C0080B400AF054B1B781A46054B1B6813446D
:10073C00034A136000BFBD4680BC70470800002010
:10074C005800002080B400AF024B1B681846BD4611
:10075C0080BC70475800002080B584B000AF786032
:10076C00FFF7F0FFB8607B68FB60FB68B3F1FF3FFD
:10077C0005D00A4B1B781A46FB681344FB6000BF7C
:10078C00FFF7E0FF0246BB68D31AFA689A42F7D823
:10079C0000BF00BF1037BD4680BD00BF0800002061
:1007AC0080B586B000AF78600023FB7500233B61F9
:1007BC000023BB600023FB607B68002B01D101236D
:1007CC00BEE07B689B68002B7B689B6A002B09D181
:1007DC007B680022DA627B68002283F82420786828
:1007EC00FFF7C8FE786800F0C5FB0346FB757B6815
:1007FC009B6A03F01003002B40F09980FB7D002BCB
:10080C0040F095807B689B6A23F4885323F00203A5
:10081C0043F002027B689A627B685A687B68DB69EA
:10082C001A437B681B7B5B001343BA681343BB60A2
:10083C007B689B68B3F5807F03D07B689B68012B3A
:10084C0002D14FF4807300E000233A6913433B61FB
:10085C007B681B7D012B19D17B681B7B002B09D17D
:10086C007B689B69013B5A033B69134343F4006368
:10087C003B610BE07B689B6A43F020027B689A62C9
:10088C007B68DB6A43F001027B68DA627B681B6879
:10089C005B6823F469417B681B683A690A435A60B8
:1008AC007B681B689A68284B13407A681268B96891
:1008BC000B4393607B689B68B3F5807F03D07B68A8
:1008CC009B68012B04D17B681B69013B1B05FB60FA
:1008DC007B681B68DB6A23F470017B681B68FA6811
:1008EC000A43DA627B681B689A68184B1340BA6833
:1008FC009A420BD17B680022DA627B689B6A23F0F8
:10090C00030343F001027B689A6218E07B689B6AE0
:10091C0023F0120343F010027B689A627B68DB6A57
:10092C0043F001027B68DA620123FB7507E07B6808
:10093C009B6A43F010027B689A620123FB75FB7D76
:10094C0018461837BD4680BDFDF7E1FFFE0E1FFFB0
:10095C0080B584B000AF78600023FB737B6893F89C
:10096C002430012B01D1022398E07B68012283F80B
:10097C002420786800F0A4FA0346FB73FB7B002B61
:10098C0040F087807B689B6A23F4407323F001035B
:10099C0043F480727B689A627B681B68414A93427D
:1009AC0005D1414B5B6803F47023002B15D17B6898
:1009BC009B6A23F480127B689A627B681B685B6875
:1009CC0003F48063002B26D07B689B6A23F440538E
:1009DC0043F480527B689A621DE07B689B6A43F407
:1009EC0080127B689A627B681B682F4A934204D002
:1009FC007B681B682B4A93420DD12B4B5B6803F42D
:100A0C008063002B07D07B689B6A23F4405343F42C
:100A1C0080527B689A627B689B6A03F48053002B3C
:100A2C0006D07B68DB6A23F006027B68DA6202E0A0
:100A3C007B680022DA627B68002283F824207B68C2
:100A4C001B686FF002021A607B681B689B6803F4DA
:100A5C006023B3F5602F13D17B681B68114A934256
:100A6C0005D1114B5B6803F47023002B08D17B6814
:100A7C001B689A687B681B6842F4A0029A600CE0C1
:100A8C007B681B689A687B681B6842F480129A60CA
:100A9C0003E07B68002283F82420FB7B1846103788
:100AAC00BD4680BD002801400024014090B587B0B0
:100ABC0000AF7860396000237B610023FB6000236A
:100ACC003B61FFF73FFE78617B681B689B6803F412
:100ADC008073002B0BD07B689B6A43F020027B68F1
:100AEC009A627B68002283F824200123D3E07B6880
:100AFC001B685B6803F48073002B31D17B681B6827
:100B0C00DB6A03F47003002B2AD121E03B68B3F1BC
:100B1C00FF3F1DD03B68002B07D0FFF713FE0246AA
:100B2C007B69D31A3A689A4212D27B681B681B689D
:100B3C0003F00203002B0BD17B689B6A43F0040289
:100B4C007B689A627B68002283F824200323A2E04E
:100B5C007B681B681B6803F00203002BD6D070E087
:100B6C004F4B1C68022001F07BF90346B4FBF3F2F7
:100B7C007B681B6819694B4B0B40002B18D17B68A9
:100B8C001B68D968484B0B40002B11D17B681B6844
:100B9C001969464B0B40002B08D17B681B68D96840
:100BAC00434B0B40002B01D1142320E029231EE0E2
:100BBC007B681B6819693D4B0B40002B06D17B6889
:100BCC001B68D9683A4B0B40002B0DD07B681B6817
:100BDC001969384B0B40002B08D17B681B68D9680E
:100BEC00344B0B40002B01D1542300E0FC2302FBBF
:100BFC0003F33B6121E03B68B3F1FF3F1AD03B6844
:100C0C00002B07D0FFF79EFD02467B69D31A3A688A
:100C1C009A420FD2FB683A699A420BD97B689B6A5D
:100C2C0043F004027B689A627B68002283F82420DC
:100C3C00032330E0FB680133FB60FB683A699A429E
:100C4C00D9D87B681B686FF012021A607B689B6AAC
:100C5C0043F400727B689A627B681B689B6803F4A0
:100C6C006023B3F5602F15D17B681B7B002B11D152
:100C7C007B689B6A23F480727B689A627B689B6AB0
:100C8C0003F48053002B05D17B689B6A43F001026F
:100C9C007B689A62002318461C37BD4690BD00BF86
:100CAC0000000020244992242449920092244912E5
:100CBC00922449004992240080B483B000AF78603C
:100CCC007B681B68DB6C18460C37BD4680BC7047D4
:100CDC0080B485B000AF786039600023FB730023CB
:100CEC00BB607B6893F82430012B01D10223DCE03C
:100CFC007B68012283F824203B685B68062B1CD898
:100D0C007B681B68596B3B685A6813469B001344FD
:100D1C00053B1F2202FA03F3DB4319403B681868BA
:100D2C003B685A6813469B001344053B00FA03F2D8
:100D3C007B681B680A435A633CE03B685B680C2B7E
:100D4C001CD87B681B68196B3B685A6813469B0060
:100D5C001344233B1F2202FA03F3DB4319403B6885
:100D6C0018683B685A6813469B001344233B00FAEF
:100D7C0003F27B681B680A431A631BE07B681B68E1
:100D8C00D96A3B685A6813469B001344413B1F22A7
:100D9C0002FA03F3DB4319403B6818683B685A6856
:100DAC0013469B001344413B00FA03F27B681B681B
:100DBC000A43DA623B681B68092B1CD97B681B68E9
:100DCC00D9683B681A6813465B0013441E3B072224
:100DDC0002FA03F3DB4319403B6898683B681A68D6
:100DEC0013465B0013441E3B00FA03F27B681B683E
:100DFC000A43DA6019E07B681B6819693B681A685A
:100E0C0013465B001344072202FA03F3DB43194039
:100E1C003B6898683B681A6813465B00134400FAF9
:100E2C0003F27B681B680A431A613B681B68102B32
:100E3C0003D03B681B68112B32D17B681B681D4AA1
:100E4C00934225D17B681B689B6803F40003002B3D
:100E5C0026D17B681B689A687B681B6842F4000289
:100E6C009A603B681B68102B1AD1134B1B68134AF2
:100E7C00A2FB03239A0C13469B0013445B00BB603C
:100E8C0002E0BB68013BBB60BB68002BF9D107E0FB
:100E9C007B689B6A43F020027B689A620123FB7398
:100EAC007B68002283F82420FB7B18461437BD4650
:100EBC0080BC7047002401400000002083DE1B43EF
:100ECC0080B584B000AF78600023FB600023BB606A
:100EDC007B681B689B6803F00103012B40D07B6887
:100EEC001B689A687B681B6842F001029A601F4B72
:100EFC001B681F4AA2FB03239B0CBB6002E0BB6870
:100F0C00013BBB60BB68002BF9D1FFF71BFCF86001
:100F1C001FE0FFF717FC0246FB68D31A022B18D907
:100F2C007B681B689B6803F00103012B11D07B6865
:100F3C009B6A43F010027B689A627B68DB6A43F021
:100F4C0001027B68DA627B68002283F8242001238B
:100F5C0007E07B681B689B6803F00103012BD8D169
:100F6C00002318461037BD4680BD00BF000000208E
:100F7C0083DE1B4380B584B000AF78600023FB6038
:100F8C007B681B689B6803F00103012B2ED17B68E7
:100F9C001B689A687B681B6822F001029A60FFF755
:100FAC00D1FBF8601BE0FFF7CDFB0246FB68D31AC0
:100FBC00022B14D97B681B689B6803F00103012B7F
:100FCC000DD17B689B6A43F010027B689A627B6848
:100FDC00DB6A43F001027B68DA62012307E07B687D
:100FEC001B689B6803F00103012BDCD0002318461F
:100FFC001037BD4680BD000080B485B000AF78606E
:10100C007B6803F00703FB600C4BDB68BB60BA68C2
:10101C004FF6FF031340BB60FB681A02BB68134317
:10102C0043F0BF6343F40033BB60044ABB68D36036
:10103C0000BF1437BD4680BC704700BF00ED00E018
:10104C0080B400AF044BDB681B0A03F0070318469F
:10105C00BD4680BC704700BF00ED00E080B483B09B
:10106C0000AF03463960FB7197F90730002B0ADBA0
:10107C003B68DAB20C4997F907301201D2B20B4433
:10108C0083F800230AE03B68DAB20849FB7903F0E5
:10109C000F03043B1201D2B20B441A7600BF0C377B
:1010AC00BD4680BC704700BF00E100E000ED00E0F1
:1010BC0080B489B000AFF860B9607A60FB6803F067
:1010CC000703FB61FB69C3F10703042B28BF04234F
:1010DC00BB61FB690433062B02D9FB69033B00E0BF
:1010EC0000237B614FF0FF32BB6902FA03F3DA4352
:1010FC00BB681A407B699A404FF0FF317B6901FA5B
:10110C0003F3D9437B680B40134318462437BD4681
:10111C0080BC704780B582B000AF78607B68013BC3
:10112C00B3F1807F01D301230FE00A4A7B68013BB6
:10113C0053600F214FF0FF30FFF790FF054B00225B
:10114C009A60044B07221A60002318460837BD46E4
:10115C0080BD00BF10E000E080B582B000AF7860C9
:10116C007868FFF749FF00BF0837BD4680BD80B5E2
:10117C0086B000AF0346B9607A60FB7300237B61D5
:10118C00FFF75EFF78617A68B9687869FFF790FFBE
:10119C00024697F90F3011461846FFF75FFF00BF64
:1011AC001837BD4680BD80B582B000AF78607868D6
:1011BC00FFF7B0FF034618460837BD4680BD000058
:1011CC0080B48BB000AF7860396000237B62002361
:1011DC003B6261E101227B6A02FA03F3FB613B682B
:1011EC001B68FA691340BB61BA69FB699A4240F00B
:1011FC0050813B685B68974A93425ED0954A934214
:10120C0075D8954A934258D0934A93426FD8934AD3
:10121C00934252D0914A934269D8914A93424CD00E
:10122C008F4A934263D88F4A934246D08D4A934259
:10123C005DD8122B2AD8122B59D801A252F823F0C0
:10124C00C7120008A1120008B3120008F51200081A
:10125C00FB120008FB120008FB120008FB1200082E
:10126C00FB120008FB120008FB120008FB1200081E
:10127C00FB120008FB120008FB120008FB1200080E
:10128C00FB120008A9120008BD120008764A93420E
:10129C0013D02CE03B68DB683B6229E03B68DB68E1
:1012AC0004333B6224E03B68DB6808333B621FE09D
:1012BC003B68DB680C333B621AE03B689B68002B95
:1012CC0002D104233B6213E03B689B68012B05D1E0
:1012DC0008233B627B68FA691A6109E008233B62C8
:1012EC007B68FA695A6103E000233B6200E000BFAF
:1012FC00BB69FF2B01D87B6801E07B6804337B6101
:10130C00BB69FF2B02D87B6A9B0002E07B6A083B1F
:10131C009B003B617B691A680F213B6901FA03F35F
:10132C00DB431A40396A3B6901FA03F31A437B69C0
:10133C001A603B685B6803F08053002B00F0A980B7
:10134C004A4B9B69494A43F001039361474B9B69A4
:10135C0003F00103BB60BB68454A7B6A9B08023300
:10136C0052F82330FB607B6A03F003039B000F22CF
:10137C0002FA03F3DB43FA681340FB607B683D4AD7
:10138C0093420DD07B683C4A934207D07B683B4A22
:10139C00934201D1022304E0032302E0012300E085
:1013AC0000237A6A02F0030292009340FA68134316
:1013BC00FB602F497B6A9B080233FA6841F82320B3
:1013CC003B685B6803F48033002B06D02C4B1A6807
:1013DC002B49BB6913430B6006E0294B1A68BB69A8
:1013EC00DB43274913400B603B685B6803F4003315
:1013FC00002B06D0224B5A682149BB6913434B6022
:10140C0006E01F4B5A68BB69DB431D4913404B6018
:10141C003B685B6803F48013002B06D0184B9A686A
:10142C001749BB6913438B6006E0154B9A68BB697F
:10143C00DB43134913408B603B685B6803F4001378
:10144C00002B1FD00E4BDA680D49BB691343CB60E0
:10145C001FE000BF0000321000003110000022100D
:10146C0000002110000012100000111000100240AA
:10147C000000014000080140000C01400010014038
:10148C00000401400B4BDA68BB69DB43094913408C
:10149C00CB607B6A01337B623B681A687B6A22FAF9
:1014AC0003F3002B7FF496AE00BF00BF2C37BD4674
:1014BC0080BC70470004014080B483B000AF7860FA
:1014CC000B467B8013467B707B78002B03D07A888D
:1014DC007B681A6103E07B881A047B681A6100BF81
:1014EC000C37BD4680BC704780B586B000AF7860C5
:1014FC007B68002B01D1012372E27B681B6803F02F
:10150C000103002B00F08780924B5B6803F00C0307
:10151C00042B0CD08F4B5B6803F00C03082B12D1FF
:10152C008C4B5B6803F48033B3F5803F0BD1894B54
:10153C001B6803F40033002B6CD07B685B68002BBA
:10154C0068D101234CE27B685B68B3F5803F06D120
:10155C00804B1B687F4A43F4803313602EE07B681A
:10156C005B68002B0CD17B4B1B687A4A23F48033CD
:10157C001360784B1B68774A23F4802313601DE0BB
:10158C007B685B68B3F5A02F0CD1724B1B68714A5A
:10159C0043F4802313606F4B1B686E4A43F4803313
:1015AC0013600BE06B4B1B686A4A23F480331360A7
:1015BC00684B1B68674A23F4802313607B685B6865
:1015CC00002B13D0FFF7BEF8386108E0FFF7BAF82C
:1015DC0002463B69D31A642B01D9032300E25D4B0D
:1015EC001B6803F40033002BF0D014E0FFF7AAF8CB
:1015FC00386108E0FFF7A6F802463B69D31A642B62
:10160C0001D90323ECE1534B1B6803F40033002B8B
:10161C00F0D100E000BF7B681B6803F00203002BD5
:10162C0063D04C4B5B6803F00C03002B0BD0494B85
:10163C005B6803F00C03082B1CD1464B5B6803F46E
:10164C008033002B16D1434B1B6803F00203002B95
:10165C0005D07B681B69012B01D00123C0E13D4BF8
:10166C001B6823F0F8027B685B69DB003949134384
:10167C000B603AE07B681B69002B20D0364B0122B3
:10168C001A60FFF75FF8386108E0FFF75BF8024675
:10169C003B69D31A022B01D90323A1E12D4B1B6803
:1016AC0003F00203002BF0D02A4B1B6823F0F80246
:1016BC007B685B69DB00274913430B6015E0264B05
:1016CC0000221A60FFF73EF8386108E0FFF73AF89D
:1016DC0002463B69D31A022B01D9032380E11D4B2F
:1016EC001B6803F00203002BF0D17B681B6803F02E
:1016FC000803002B3AD07B689B69002B19D0174B41
:10170C0001221A60FFF71EF8386108E0FFF71AF89B
:10171C0002463B69D31A022B01D9032360E10D4B1E
:10172C005B6A03F00203002BF0D0012000F0C4FA36
:10173C001CE00A4B00221A60FFF704F838610FE036
:10174C00FFF700F802463B69D31A022B08D9032392
:10175C0046E100BF001002400000424280044242B9
:10176C00924B5B6A03F00203002BE9D17B681B6888
:10177C0003F00403002B00F0A6800023FB758B4BB9
:10178C00DB6903F08053002B0DD1884BDB69874A52
:10179C0043F08053D361854BDB6903F08053BB600E
:1017AC00BB680123FB75824B1B6803F48073002B11
:1017BC0018D17F4B1B687E4A43F480731360FEF78D
:1017CC00C1FF386108E0FEF7BDFF02463B69D31A42
:1017DC00642B01D9032303E1754B1B6803F480735D
:1017EC00002BF0D07B68DB68012B06D16F4B1B6A9A
:1017FC006E4A43F0010313622DE07B68DB68002B1B
:10180C000CD16A4B1B6A694A23F001031362674BC4
:10181C001B6A664A23F0040313621CE07B68DB68D6
:10182C00052B0CD1614B1B6A604A43F00403136215
:10183C005E4B1B6A5D4A43F0010313620BE05B4B8A
:10184C001B6A5A4A23F001031362584B1B6A574A0E
:10185C0023F0040313627B68DB68002B15D0FEF7C2
:10186C0071FF38610AE0FEF76DFF02463B69D31A3F
:10187C0041F28832934201D90323B1E04B4B1B6AEE
:10188C0003F00203002BEED014E0FEF75BFF38618F
:10189C000AE0FEF757FF02463B69D31A41F2883241
:1018AC00934201D903239BE0404B1B6A03F00203D4
:1018BC00002BEED1FB7D012B05D13C4BDB693B4A68
:1018CC0023F08053D3617B68DB69002B00F08780A9
:1018DC00364B5B6803F00C03082B61D07B68DB692B
:1018EC00022B46D1334B00221A60FEF72BFF3861D6
:1018FC0008E0FEF727FF02463B69D31A022B01D9F9
:10190C0003236DE0294B1B6803F00073002BF0D10F
:10191C007B681B6AB3F5803F08D1244B5B6823F4CA
:10192C0000327B689B68214913434B601F4B5B68FB
:10193C0023F474127B68196A7B685B6A0B431B493E
:10194C0013434B601B4B01221A60FEF7FBFE386100
:10195C0008E0FEF7F7FE02463B69D31A022B01D9C9
:10196C0003233DE0114B1B6803F00073002BF0D0F8
:10197C0035E0104B00221A60FEF7E4FE386108E0F7
:10198C00FEF7E0FE02463B69D31A022B01D9032372
:10199C0026E0064B1B6803F00073002BF0D11EE011
:1019AC007B68DB69012B07D1012319E00010024091
:1019BC0000700040600042420B4B5B68FB60FB68B0
:1019CC0003F480327B681B6A9A4206D1FB6803F4ED
:1019DC0070127B685B6A9A4201D0012300E00023FD
:1019EC0018461837BD4680BD0010024080B584B043
:1019FC0000AF786039607B68002B01D10123D0E007
:101A0C006A4B1B6803F007033A689A4210D9674B7C
:101A1C001B6823F0070265493B6813430B60634B5B
:101A2C001B6803F007033A689A4201D00123B8E01F
:101A3C007B681B6803F00203002B20D07B681B68BB
:101A4C0003F00403002B05D0594B5B68584A43F450
:101A5C00E06353607B681B6803F00803002B05D020
:101A6C00534B5B68524A43F460535360504B5B6872
:101A7C0023F0F0027B689B684D4913434B607B68F5
:101A8C001B6803F00103002B40D07B685B68012BC3
:101A9C0007D1474B1B6803F40033002B15D10123EE
:101AAC007FE07B685B68022B07D1414B1B6803F01E
:101ABC000073002B09D1012373E03D4B1B6803F02D
:101ACC000203002B01D101236BE0394B5B6823F03F
:101ADC0003027B685B68364913434B60FEF732FEAA
:101AEC00F8600AE0FEF72EFE0246FB68D31A41F2BC
:101AFC008832934201D9032353E02D4B5B6803F0EA
:101B0C000C027B685B689B009A42EBD1274B1B68ED
:101B1C0003F007033A689A4210D2244B1B6823F057
:101B2C00070222493B6813430B60204B1B6803F0F0
:101B3C0007033A689A4201D0012332E07B681B68A4
:101B4C0003F00403002B08D0194B5B6823F4E0620C
:101B5C007B68DB68164913434B607B681B6803F09A
:101B6C000803002B09D0124B5B6823F460527B688E
:101B7C001B69DB000E4913434B6000F021F8024651
:101B8C000B4B5B681B0903F00F030A49CB5C22FA71
:101B9C0003F3094A1360094B1B681846FEF790FDC6
:101BAC00002318461037BD4680BD00BF0020024000
:101BBC0000100240942000080000002004000020C7
:101BCC0090B48AB000AF294B3C1D0FCB84E80F00BA
:101BDC0040F201233B800023FB610023BB61002307
:101BEC007B6200237B6100233B62214B5B68FB61C2
:101BFC00FB6903F00C03042B02D0082B03D02BE061
:101C0C001C4B3B622BE0FB699B0C03F00F0328334E
:101C1C003B4413F8243C7B61FB6903F48033002BB9
:101C2C0012D0134B5B685B0C03F0010328333B446D
:101C3C0013F8283CBB617B690E4A03FB02F2BB69BB
:101C4C00B2FBF3F37B6204E07B690B4A02FB03F308
:101C5C007B627B6A3B6202E0064B3B6200BF3B6AE5
:101C6C0018462837BD4690BC704700BF742000084A
:101C7C000010024000127A0000093D0080B400AF51
:101C8C00024B1B681846BD4680BC70470000002004
:101C9C0080B500AFFFF7F2FF0246054B5B68DB0A2D
:101CAC0003F007030349CB5C22FA03F3184680BD0B
:101CBC0000100240A420000880B485B000AF78600A
:101CCC000A4B1B680A4AA2FB03235B0A7A6802FBD5
:101CDC0003F3FB6000BFFB685A1EFA60002BF9D1BE
:101CEC0000BF00BF1437BD4680BC70470000002009
:101CFC00D34D621080B586B000AF786000233B6195
:101D0C000023FB607B681B6803F00103002B7DD074
:101D1C000023FB754F4BDB6903F08053002B0DD177
:101D2C004C4BDB694B4A43F08053D361494BDB6925
:101D3C0003F08053BB60BB680123FB75464B1B68EB
:101D4C0003F48073002B18D1434B1B68424A43F4B5
:101D5C0080731360FEF7F6FC386108E0FEF7F2FCC6
:101D6C0002463B69D31A642B01D903236DE03A4B2D
:101D7C001B6803F48073002BF0D0364B1B6A03F402
:101D8C004073FB60FB68002B2ED07B685B6803F410
:101D9C004073FA689A4227D02E4B1B6A23F4407387
:101DAC00FB602E4B01221A602C4B00221A60294A30
:101DBC00FB681362FB6803F00103002B14D0FEF7E1
:101DCC00C1FC38610AE0FEF7BDFC02463B69D31A40
:101DDC0041F28832934201D9032336E01D4B1B6A32
:101DEC0003F00203002BEED01A4B1B6A23F4407253
:101DFC007B685B68174913430B62FB7D012B05D194
:101E0C00144BDB69134A23F08053D3617B681B6846
:101E1C0003F00203002B08D00E4B5B6823F4404206
:101E2C007B689B680B4913434B607B681B6803F012
:101E3C001003002B08D0074B5B6823F480027B68EF
:101E4C00DB68044913434B60002318461837BD4622
:101E5C0080BD00BF001002400070004040044242B0
:101E6C0090B58DB000AF7860584B07F10C040FCBD8
:101E7C0084E80F0040F201233B8100237B620023A6
:101E8C00FB6200233B620023FB610023BB627B6887
:101E9C00102B0AD07B68102B00F28E807B68012BF4
:101EAC0049D07B68022B79D086E0494B5B68FB619B
:101EBC00474B1B6803F08073002B7FD0FB699B0C96
:101ECC0003F00F0330333B4413F8243C3B62FB69B3
:101EDC0003F48033002B17D03D4B5B685B0C03F095
:101EEC00010330333B4413F8283C7B62FB6903F459
:101EFC008033002B0DD0374A7B6AB2FBF3F23B6A7E
:101F0C0002FB03F3FB6204E03B6A334A02FB03F37C
:101F1C00FB622F4B5B6803F48003B3F5800F02D197
:101F2C00FB6ABB624AE0FB6A5B002C4AA2FB032300
:101F3C005B08BB6242E0264B1B6AFB61FB6903F446
:101F4C004073B3F5807F08D1FB6903F00203002BCB
:101F5C0003D04FF40043BB621FE0FB6903F44073F2
:101F6C00B3F5007F09D11A4B5B6A03F00203002B17
:101F7C0003D049F64043BB620FE0FB6903F44073A6
:101F8C00B3F5407F1CD1124B1B6803F40033002BBC
:101F9C0016D04FF22443BB6212E011E0FFF778FE3B
:101FAC0002460B4B5B689B0B03F0030301335B0096
:101FBC00B2FBF3F3BB6204E000BF02E000BF00E041
:101FCC0000BFBB6A18463437BD4690BD842000085C
:101FDC000010024000127A0000093D00ABAAAAAA28
:101FEC0070B500260C4D0D4C641BA410A64209D1F3
:101FFC0000F022F800260A4D0A4C641BA410A642DD
:10200C0005D170BD55F8043B98470136EEE755F8FD
:10201C00043B98470136F2E7AC200008AC200008DE
:10202C00AC200008B020000803460244934200D1C3
:10203C00704703F8011BF9E7F8B500BFF8BC08BC02
:10204C009E467047F8B500BFF8BC08BC9E4670476A
:10205C0037332055726F730037332F3230313920BC
:10206C0055726F730000000002030405060708098F
:10207C000A0B0C0D0E0F10100203040506070809BD
:10208C000A0B0C0D0E0F10100000000000000000D9
:10209C000102030406070809000000000102030402
:0420AC0031010008F6
:0420B0000D01000816
:0C20B4000024F4001000000001000000F7
:040000050800065594
:00000001FF
